:1000000001308A005229000049266F3B6510D9371C
:10001000751053346137F43000008A216F32E53BAC
:10002000693AE8307334E9360001273084008313DD
:100030000008031928280630F800F701F70B1E28DE
:10004000F80B1D287B30F700F70B2428800B1B28AA
:1000500008002D0EF039F7000F30080577048800EE
:10006000000008140330F700F70B342808100800CC
:100070000808F700080E0F39F8000800831608106A
:1000800088100811831288100F3083160805F03885
:100090008800831208150000081400003820780832
:1000A000AD0008100000081455285628000038201C
:1000B0007808AC0008100F308316080588008312FA
:1000C0002D0EF700F030F70577082C04F8007808BB
:1000D000AC00AC1B44282A1C88102A188814000085
:1000E0000811000008102B0EAC000F30AC052C08D6
:1000F000AD0029202B080F39AC00AD0029200800E5
:100100002830A3000C30A4000130A5000630A60062
:100110000810881008110F30831608058800081091
:10012000881008110F308312A70015200130A2009B
:100130002208033C031CA4280330AD00292005300D
:10014000A7001520A20A98280230AD00292005300A
:10015000A7001520A2012208033C031CBB28233062
:100160002207840083130008A700AA012708AB0018
:100170003E20A20AAB288A110A126129270BC12846
:10018000C4284030A800C528A80101302602A807CD
:1001900028088038A900AA012908AB003E200800E1
:1001A0002508073A0319DE280B3A0319E328063A13
:1001B0000319EB28023A0319F128F6280130A600AA
:1001C000A700BE20FB28AA010130AB003E20023070
:1001D000A7001520FB280130A6000230A700BE2092
:1001E000FB28AA011030AB003E20FB280130AA00FA
:1001F0002508AB003E2008000B08A2008B138316D5
:1002000003178C170C140000000083120313A21BA9
:100210008B1703170C087F39031950290313A20009
:1002200003170D080313A30003170F080313A400FB
:100230002208A500D020230803178D0003132408EB
:1002400003178F0003130B08A5008B1383160317E6
:100250008C170C140000000083120313A51B8B17CE
:1002600003170C0D0E0D7F39031950290313A2003B
:1002700003170D080313A30003170F080313A400AB
:100280002208A500D020230803178D00031324089B
:1002900003178F008D0A03198F0A0313FC28031715
:1002A0000313080003081F398300A101A00183166E
:1002B0001F149F141F159F1107309C008313831276
:1002C0008028043003178D0000308F000313FC20BA
:1002D0001830A200FA30A7001520A20B6A290C30B2
:1002E000A500D0200230A200FA30A7001520A20BF2
:1002F00074290D3003178D0000308F000313FC208C
:100300001830A200FA30A7001520A20B82290C3069
:10031000A500D0200230A200FA30A7001520A20BC1
:060320008C296129630035
:02400E00422F3F
:00000001FF
;PIC16F877A
;CRC=4A0C  CREATED="03-Nov-22 01:20"
